:020000040000FA
:040000001AEF00F003
:100008005E820E0133A10BEF00F00DEF00F00FEF51
:1000180000F07C8E339133AB14EF00F016EF00F054
:1000280018EF00F08086339B5E921100BFEF19F045
:100E00000062617474657279206C6576656C20256A
:100E100064250000DCEC1AF08DEC19F0ECEC18F015
:100E2000EBEC1AF036EC1AF01DEC1BF0F9EC1AF0B2
:100E3000ACEC1AF0000E00018B6F1A0E8A6F000ED8
:100E40008D6F280E8C6F000ED56F000ED46F000EC4
:100E5000936F000EBD6F170E906F86840E01B495D0
:100E6000CCEC1AF001C005F002C006F0000E086ECE
:100E7000140E076E10EC1AF005C00BF006C00CF053
:100E8000000E0E6E150E0D6E9BEC17F00BC09BF056
:100E90000CC09CF06C0E586E000E596E010E5A6E0E
:100EA0000E0E5B6E9BC05CF09CC05DF0C3EC18F056
:100EB0006C0E026E000E036EA7EC19F000019C513F
:100EC00007E1140E9B5DD8B068EF07F06AEF07F0FA
:100ED0007AEF07F0FDEC19F0110E00016B6F3C0E7C
:100EE0006A6FCB0EE82EFED76A2FFCD76B2FFAD78E
:100EF000FDEC19F000019C5109E15B0E9B5DD8A04F
:100F000084EF07F086EF07F096EF07F0FDEC19F09D
:100F1000110E00016B6F3C0E6A6FCB0EE82EFED7F0
:100F20006A2FFCD76B2FFAD7FDEC19F0C90E0B6EA8
:100F3000000E0C6EBE0E0D6E000E0E6E000E106ECC
:100F4000050E0F6E38EC0DF08EB4A9EF07F0ABEF85
:100F500007F0A4EF07F0DE0E146E000E156ED60E2D
:100F6000166E000E176EC80E1DEC14F0D5EC17F0BF
:100F7000B50E0F6E000E106E9D0E116E000E126EED
:100F8000A50E136E000E146EAD0E156E000E166ECD
:100F90005AEC16F012EC1BF08EB4D1EF07F0D3EF41
:100FA00007F0CCEF07F0B6EF08F0DE0E146E000E7F
:100FB000156ED60E166E000E176E8AC018F08BC016
:100FC00019F0010E1A6E58EC17F080A6EAEF07F040
:100FD000ECEF07F0EFEF07F00001BD2B80967CAE41
:100FE000F4EF07F0F6EF07F08AEF08F05AEC1AF08A
:100FF000DE0E146E000E156ED60E166E000E176EF7
:101000006CEC18F05AEC1AF0B50E1E6E000E1F6E46
:101010009D0E206E000E216EA50E226E000E236E18
:10102000AD0E246E000E256EDE0E266E000E276EAF
:10103000D60E286E000E296EA2EC09F000019A6F00
:10104000800ED425D96E000ED521DA6E9AC0DFFF4E
:101050009A05D8A42EEF08F030EF08F048EF08F01A
:101060007C9E12EC1BF0010E0001936F760ED425CE
:10107000D96E000ED521DA6EBDC0DFFF800ED425FB
:10108000D96E000ED521DA6E000EDF6E8AEF08F001
:10109000DE0E146E000E156ED60E166E000E176E56
:1010A000010E186E000E196E88EC13F0760E00011A
:1010B000D425D96E000ED521DA6EBDC0DFFFD44B2A
:1010C000D52BC90E016E000E026EBE0E036E000E11
:1010D000046E9AC005F08DEC0EF001C094F002C0D1
:1010E00095F003C096F0DE0E146E000E156ED60E4F
:1010F000166E000E176E95C018F096C019F094C0C9
:101100001AF01B6A13EC12F0000E0001BD6F7C9EFA
:1011100012EC1BF00001BD51905DD8B092EF08F0C9
:1011200094EF08F0B6EF08F0760ED425D96E000ED5
:10113000D521DA6EBDC0DFFF800ED425D96E000E3A
:10114000D521DA6E000EDF6E010E936F5AEC1AF0A5
:10115000DE0E146E000E156ED60E166E000E176E95
:101160006CEC18F05AEC1AF00AEC17F00001D5BF3D
:10117000C5EF08F0D55107E10A0ED45DD8B0C3EF32
:1011800008F0C5EF08F0CDEF08F09351D8B4CBEFDD
:1011900008F0CDEF08F0D5EF07F0000E8F6F000ECE
:1011A0008E6FF2EF08F07E80520E00016B6F2B0EF7
:1011B0006A6F000EE82EFED76A2FFCD76B2FFAD786
:1011C00000F07E9000018E4B8F2B090E00016B6F9B
:1011D0001E0E6A6FE40EE82EFED76A2FFCD76B2F27
:1011E000FAD700F00001D4518E5DD5518F59D8A0A7
:1011F000FCEF08F0FEEF08F0D3EF08F0D5EC17F0A5
:1012000098EF09F0800ED425D96E000ED521DA6E44
:10121000DF50D8B40EEF09F010EF09F04AEF09F0F3
:10122000800ED425D96E000ED521DA6E800ED4251D
:10123000E16E000ED521E26EE750B3EC16F0DF6EE2
:10124000C90E016E000E026EBE0E036E000E046E1D
:10125000800E0001D425D96E000ED521DA6EDF5044
:10126000056E8DEC0EF001C097F002C098F003C03F
:1012700099F0DE0E146E000E156ED60E166E000E70
:10128000176E98C018F099C019F097C01AF01B6A31
:1012900013EC12F0DE0E146E000E156ED60E166EE6
:1012A000000E176E8CC018F08DC019F0000E1A6E6B
:1012B00058EC17F07BEF09F080A661EF09F063EFBF
:1012C00009F07BEF09F0760ED425D96E000ED521FA
:1012D000DA6EDFB06EEF09F070EF09F072EF09F02F
:1012E0006BEC1AF0760E0001D425D96E000ED521D4
:1012F000DA6EDF068096760E0001D425D96E000ED8
:10130000D521DA6EDF50D8A488EF09F08AEF09F012
:101310005CEF09F0DE0E146E000E156ED60E166E22
:10132000000E176E6CEC18F00001D407D8A0D5079A
:101330000001D5BFA0EF09F09EEF09F002EF09F020
:101340001AEF00F0000E2E6E3F0E0F6E000E106EA4
:101350002F0E116E000E126E370E136E000E146EED
:10136000470E156E000E166E5AEC16F03F0E016E0B
:10137000000E026E1EC003F01FC004F0ADEC14F0AE
:101380002F0E016E000E026E20C003F021C004F08B
:10139000ADEC14F0370E016E000E026E22C003F0A9
:1013A00023C004F0ADEC14F0470E016E000E026E87
:1013B00024C003F025C004F0ADEC14F0000E506E14
:1013C000000E4F6E46BEEEEF09F0465009E1970E53
:1013D000455CD8A0EEEF09F0F0EF09F0F2EF09F06C
:1013E0004F4A502A4CBEFEEF09F04C5009E11F0E47
:1013F0004B5CD8A0FEEF09F000EF0AF004EF0AF012
:10140000020E4F26000E5022030E4F142A6E000EBD
:1014100050142B6E2A042B10D8A411EF0AF013EFEE
:101420000AF017EF0AF0010E2E6EC4EF0BF0030E58
:101430004F142A6E000E50142B6E030E2A182B1018
:10144000D8A425EF0AF027EF0AF02BEF0AF0030EDD
:101450002E6EC4EF0BF026C014F027C015F028C084
:1014600016F029C017F0050E186E010E196E88ECE3
:1014700013F03F0E0F6E000E106E2F0E116E000E49
:10148000126E370E136E000E146E470E156E000EA0
:10149000166E5AEC16F04CBE57EF0AF04C5009E1AC
:1014A0005B0E4B5CD8A057EF0AF059EF0AF05DEFE6
:1014B0000AF0040E4F26000E50223ABE69EF0AF0E1
:1014C000590E395C020E3A58D8A069EF0AF06BEF5A
:1014D0000AF06FEF0AF0080E4F26000E50223ABEB7
:1014E0007BEF0AF0410E395C010E3A58D8A07BEF31
:1014F0000AF07DEF0AF081EF0AF0100E4F26000E81
:10150000502230BE8DEF0AF0270E2F5C020E3058AD
:10151000D8A08DEF0AF08FEF0AF093EF0AF0200EBB
:101520004F26000E502240BE9FEF0AF0DB0E3F5CBC
:10153000020E4058D8A09FEF0AF0A1EF0AF0A5EFE5
:101540000AF0400E4F26000E502242BEB1EF0AF0C4
:10155000425009E1F60E415CD8A0B1EF0AF0B3EFBA
:101560000AF0B7EF0AF0800E4F26000E50224CBE54
:10157000C3EF0AF04C5009E13D0E4B5CD8A0C3EF1D
:101580000AF0C5EF0AF0C7EF0AF0010E50264CBE74
:10159000D3EF0AF04C5009E1330E4B5CD8A0D3EFE7
:1015A0000AF0D5EF0AF0D7EF0AF0020E502646BE39
:1015B000E5EF0AF0B60E455C030E4658D8B0E3EFEF
:1015C0000AF0E5EF0AF0E7EF0AF0040E50264D0EA0
:1015D0002A6E010E2B6E4FC02CF050C02DF02A50F9
:1015E0002C162B502D162D042C10D8A4FAEF0AF02F
:1015F000FCEF0AF0FEEF0AF0020E2E6EFC0E2A6ED1
:10160000070E2B6E4FC02CF050C02DF02A502C1618
:101610002B502D16840E2C1807E1070E2D18D8A478
:1016200014EF0BF016EF0BF018EF0BF0030E2E6E0D
:10163000FD0E2A6E050E2B6E4FC02CF050C02DF003
:101640002A502C162B502D16940E2C1806E12D0422
:10165000D8A42DEF0BF02FEF0BF031EF0BF0040EB1
:101660002E6E5D0E2A6E050E2B6E4FC02CF050C0F4
:101670002DF02A502C162B502D16040E2D182C1040
:10168000D8A445EF0BF047EF0BF049EF0BF0050E38
:101690002E6EED0E2A6E050E2B6E4FC02CF050C034
:1016A0002DF02A502C162B502D16800E2C182D1094
:1016B000D8A45DEF0BF05FEF0BF061EF0BF0060EBF
:1016C0002E6ECD0E2A6E010E2B6E4FC02CF050C028
:1016D0002DF02A502C162B502D162C502D10D8A43E
:1016E00074EF0BF076EF0BF078EF0BF0070E2E6E29
:1016F0006D0E2A6E010E2B6E4FC02CF050C02DF0D7
:101700002A502C162B502D16200E2C182D10D8A434
:101710008CEF0BF08EEF0BF090EF0BF0080E2E6EAF
:10172000ED0E2A6E030E2B6E4FC02CF050C02DF024
:101730002A502C162B502D16600E2C1807E1020E85
:101740002D18D8A4A6EF0BF0A8EF0BF0AAEF0BF022
:10175000090E2E6EED0E2A6E020E2B6E4FC02CF06F
:1017600050C02DF02A502C162B502D16E00E2C18A0
:1017700007E1020E2D18D8A4C0EF0BF0C2EF0BF05A
:10178000C4EF0BF00A0E2E6E2E5012001EC036F063
:101790001FC037F020C038F021C039F022C03AF025
:1017A00023C03BF024C03CF025C03DF03DBEDBEF44
:1017B0000BF0DEEF0BF0010EDFEF0BF0000E346EDE
:1017C000356A34503510D8B4E8EF0BF0EAEF0BF07F
:1017D000FAEF0BF03D1E3C1E3B1E3A1E391E381E12
:1017E000371E366C000E3722382239223A223B222D
:1017F0003C223D220001EBBF00EF0CF002EF0CF0A9
:1018000003EF0CF0EC93EBBF10EF0CF0EB5106E1A3
:10181000EA05D8B00EEF0CF010EF0CF016EF0CF05C
:10182000000E316E010E306E1AEF0CF0EAC030F08F
:10183000EBC031F0E8C032F0E9C033F0345035107D
:10184000D8A425EF0CF027EF0CF02EEF0CF0ECA550
:101850002CEF0CF02EEF0CF031EF0CF03206D8A08C
:101860003306000E3F6E1F0E3E6E000E01011F6F0D
:10187000B6EF0CF03E06D8A03F06000E3E24D96E0F
:10188000010E3F20DA6E36C001F037C002F038C0DA
:1018900003F039C004F03AC005F03BC006F03CC08C
:1018A00007F03DC008F00A0E096E000E0A6E000E29
:1018B0000B6E000E0C6E000E0D6E000E0E6E000E06
:1018C0000F6E000E106ED6EC12F001C026F002C0B2
:1018D00027F003C028F004C029F005C02AF006C094
:1018E0002BF007C02CF008C02DF026C013F028C044
:1018F00014F052EC19F01350300FDF6E3006D8A000
:1019000031063206D8A0330636C001F037C002F0E7
:1019100038C003F039C004F03AC005F03BC006F00F
:101920003CC007F03DC008F00A0E096E000E0A6EBA
:10193000000E0B6E000E0C6E000E0D6E000E0E6E85
:10194000000E0F6E000E106E4FEC11F001C036F05D
:1019500002C037F003C038F004C039F005C03AF0D7
:1019600006C03BF007C03CF008C03DF03FBEC1EFF1
:101970000CF03F5008E13E04D8A0C1EF0CF0C3EFDB
:101980000CF0F4EF0CF036503710381039103A10D4
:101990003B103C103D10D8A4D0EF0CF0D2EF0CF06F
:1019A0003AEF0CF031BEDFEF0CF0315006E13004BD
:1019B000D8B0DDEF0CF0DFEF0CF03AEF0CF033BEF7
:1019C000EAEF0CF0335008E13204D8A0EAEF0CF053
:1019D000ECEF0CF0F4EF0CF00001ECB3F2EF0CF0D4
:1019E000F4EF0CF03AEF0CF034503510D8A4FBEFC4
:1019F0000CF0FDEF0CF005EF0DF00001ECA503EF8E
:101A00000DF005EF0DF023EF0DF03E06D8A03F06D8
:101A100034503510D8A40FEF0DF011EF0DF017EF83
:101A20000DF0000E2F6E2B0E2E6E1BEF0DF0000E24
:101A30002F6E2D0E2E6E000E3E24D96E010E3F200D
:101A4000DA6E2EC0DFFF1CC011F01DC012F0000EB8
:101A50003E24136E010E3F20146E32C015F033C0C9
:101A600016F095EC15F011C01CF012C01DF012001C
:101A7000640E0F181010D8A440EF0DF042EF0DF0D7
:101A80009AEF0DF00BC0D9FF0CC0DAFF000EDE6E2E
:101A9000000EDD6E20EE02F00B50D9260C50DA223B
:101AA0000F0EDE6E000EDD6E20EE04F00B50D92618
:101AB0000C50DA22500EDE6E000EDD6E20EE06F0C7
:101AC0000B50D9260C50DA22FF0EDE6E000EDD6EB2
:101AD00020EE08F00B50D9260C50DA228B0EDE6E69
:101AE000010EDD6E0DC0D9FF0EC0DAFF000EDE6EF6
:101AF000000EDD6E20EE02F00D50D9260E50DA22D7
:101B0000050EDE6E000EDD6E20EE04F00D50D926BF
:101B10000E50DA224B0EDE6E000EDD6E20EE06F069
:101B20000D50D9260E50DA22DC0EDE6E000EDD6E70
:101B30007CEF0EF0140E116E000E126E0F50115E3F
:101B40001050125AD8901230146E1130136E0BC010
:101B5000D9FF0CC0DAFF13C0DEFF14C0DDFF0FC0D9
:101B600005F010C006F0FF0E086EFD0E076E10ECBB
:101B70001AF04B0E0526000E062220EE02F00B5046
:101B8000D9260C50DA2205C0DEFF06C0DDFF0FC0EB
:101B900005F010C006F0FF0E086EFD0E076E10EC8B
:101BA0001AF08C0E0526000E062220EE04F00B50D3
:101BB000D9260C50DA2205C0DEFF06C0DDFF3B0E41
:101BC000116E010E126E0FC005F010C006F0FF0E70
:101BD000086EFD0E076E10EC1AF01150052612501B
:101BE000062220EE06F00B50D9260C50DA2205C052
:101BF000DEFF06C0DDFF8B0E116E010E126E140E9D
:101C0000136E000E146E0F50135E1050145AD890BD
:101C100013361436D890133614361150132612503A
:101C2000142220EE08F00B50D9260C50DA2213C0F3
:101C3000DEFF14C0DDFF140E116E000E126E0F5089
:101C4000115E1050125AD8901230146E1130136E6B
:101C50000DC0D9FF0EC0DAFF13C0DEFF14C0DDFFD8
:101C60000FC005F010C006F0FF0E086EFD0E076EE7
:101C700010EC1AF0410E0526000E062220EE02F0AE
:101C80000D50D9260E50DA2205C0DEFF06C0DDFF5A
:101C90000FC005F010C006F0FF0E086EFD0E076EB7
:101CA00010EC1AF0870E0526000E062220EE04F036
:101CB0000D50D9260E50DA2205C0DEFF06C0DDFF2A
:101CC000180E116E010E126E0FC005F010C006F056
:101CD000FF0E086EFD0E076E10EC1AF0115005266F
:101CE0001250062220EE06F00D50D9260E50DA22B0
:101CF00005C0DEFF06C0DDFF20EE0AF00B50D9263E
:101D00000C50DA22000EDF6E20EE0AF00D50D926BC
:101D10000E50DA22010EDF6E1200020E0518D8A452
:101D200094EF0EF096EF0EF0AAEF0EF020EE0AF010
:101D30000350D9260450DA22DF50066E20EE06F05A
:101D40000350D9260450DA22DECF07F0DDCF08F0A9
:101D50008EEF0FF0030E0518D8A4B1EF0EF0B3EF1D
:101D60000EF0C7EF0EF020EE0AF00150D926025017
:101D7000DA22DF50066E20EE02F00150D926025022
:101D8000DA22DECF07F0DDCF08F08EEF0FF0040E81
:101D90000518D8A4CEEF0EF0D0EF0EF0E4EF0EF061
:101DA00020EE0AF00150D9260250DA22DF50066EEA
:101DB00020EE08F00150D9260250DA22DECF07F0DB
:101DC000DDCF08F08EEF0FF0050E0518D8A4EBEF6D
:101DD0000EF0EDEF0EF001EF0FF020EE0AF00150E3
:101DE000D9260250DA22DF50066E20EE04F00150B0
:101DF000D9260250DA22DECF07F0DDCF08F08EEFD1
:101E00000FF0060E0518D8A408EF0FF00AEF0FF038
:101E10001EEF0FF020EE0AF00150D9260250DA2210
:101E2000DF50066E20EE06F00150D9260250DA226D
:101E3000DECF07F0DDCF08F08EEF0FF0070E0518AC
:101E4000D8A425EF0FF027EF0FF039EF0FF020EEB9
:101E50000AF00350D9260450DA22DF50066E03C080
:101E6000D9FF04C0DAFFDECF07F0DDCF08F08EEF38
:101E70000FF0080E0518D8A440EF0FF042EF0FF056
:101E800054EF0FF020EE0AF00150D9260250DA226A
:101E9000DF50066E01C0D9FF02C0DAFFDECF07F0C7
:101EA000DDCF08F08EEF0FF0090E0518D8A45BEF18
:101EB0000FF05DEF0FF071EF0FF020EE0AF003501E
:101EC000D9260450DA22DF50066E20EE04F00350CB
:101ED000D9260450DA22DECF07F0DDCF08F08EEFEE
:101EE0000FF00A0E0518D8A478EF0FF07AEF0FF074
:101EF0008EEF0FF020EE0AF00350D9260450DA22BC
:101F0000DF50066E20EE02F00350D9260450DA228C
:101F1000DECF07F0DDCF08F08EEF0FF006C001F046
:101F200007C002F008C003F0120020EE01F00950D3
:101F3000D9260A50DA22DF50D8B4A1EF0FF0A3EF70
:101F40000FF0CFEF0FF020EE07F00950D9260A501E
:101F5000DA22DF500B6E09C0D9FF0AC0DAFFDF506A
:101F60000C6E0C500B02F3CF01F0F4CF02F0000E18
:101F7000046E640E036EF8EC15F020EE07F00950C5
:101F8000D9260A50DA22DF500D6E01500D5C126E18
:101F90000250D8A00228136A135EEDEF0FF020EE76
:101FA00007F00950D9260A50DA22DF500B6E09C01B
:101FB000D9FF0AC0DAFFDF500C6E0C500B02F3CFD2
:101FC00001F0F4CF02F0000E046E640E036EF8EC24
:101FD00015F001C012F002C013F020EE02F009501B
:101FE000D9260A50DA22DECF0BF0DDCF0CF00BC081
:101FF000D9FF0CC0DAFF12C0DFFF20EE01F009505C
:10200000D9260A50DA22DF50D8B409EF10F00BEFCE
:1020100010F040EF10F020EE04F00950D9260A50DD
:10202000DA22DECF0BF0DDCF0CF00BC0D9FF0CC0F5
:10203000DAFF10EE04F00950E1260A50E222E6CF62
:102040000DF0E5CF0EF00DC0E1FF0EC0E2FFE7504E
:102050000F6E10EE06F00950E1260A50E222E7501A
:10206000106E010E116E102A38EF10F0D890113654
:10207000102E36EF10F011500F10DF6E74EF10F0CD
:1020800020EE04F00950D9260A50DA22DECF0BF0F8
:10209000DDCF0CF00BC0D9FF0CC0DAFF10EE04F05E
:1020A0000950E1260A50E222E6CF0DF0E5CF0EF00E
:1020B0000DC0E1FF0EC0E2FFE7500F6E10EE06F01C
:1020C0000950E1260A50E222E750106E010E116E0F
:1020D000102A6DEF10F0D8901136102E6BEF10F023
:1020E0001150FF0A0F14DF6E120042C0D9FF43C027
:1020F000DAFFDECFF6FFDDCFF7FF0800F550250A47
:10210000D8A485EF10F087EF10F033EF11F042C044
:10211000D9FF43C0DAFFDE2A000EDD22000E0001E7
:10212000E96F000EE86FE8C0ECF0E9C0EDF0EA6995
:10213000EB6942C0D9FF43C0DAFFDECFF6FFDDCF47
:10214000F7FF0800F550640AD8B4A9EF10F0ABEF20
:1021500010F0BDEF10F042C0D9FF43C0DAFFDECF70
:10216000F6FFDDCFF7FF0800F550690AD8A4BBEFF2
:1021700010F0BDEF10F0FDEF10F042C0D9FF43C0EA
:10218000DAFFDE2A000EDD2244C0D9FF45C0DAFFA7
:10219000DFCF46F0020EDE26DFCF47F0000EDD2255
:1021A00046C0D9FF47C0DAFFDECF48F0DDCF49F0A7
:1021B000000E49BEFF0E4A6E4B6E4C6E4D6E4E6E5B
:1021C0004F6E40C01CF041C01DF048C01EF049C019
:1021D0001FF04AC020F04BC021F04CC022F04DC08F
:1021E00023F04EC024F04FC025F0C6EC0BF01CC00D
:1021F00040F01DC041F04EEF11F042C0D9FF43C086
:10220000DAFFDECFF6FFDDCFF7FF0800F550250A35
:10221000D8A40DEF11F00FEF11F026EF11F042C02E
:10222000D9FF43C0DAFFDE2A000EDD22000E026E67
:10223000250E016E40C003F041C004F030EC15F0F3
:10224000000E416E010E406E4EEF11F042C0D9FFFC
:1022500043C0DAFFDE2A000EDD22000E416E000EC2
:10226000406E4EEF11F042C0D9FF43C0DAFFDECF1F
:10227000F6FFDDCFF7FF0800F550016E026A40C09F
:1022800003F041C004F030EC15F042C0D9FF43C068
:10229000DAFFDE2A000EDD2220EF11F01200000E20
:1022A000126E10BE58EF11F056EF11F06AEF11F0F8
:1022B000101E0F1E0E1E0D1E0C1E0B1E0A1E096C7C
:1022C000000E0A220B220C220D220E220F221022B7
:1022D000010E126E08BE71EF11F06FEF11F083EF77
:1022E00011F0081E071E061E051E041E031E021EF8
:1022F000016C000E0222032204220522062207227C
:102300000822010E121A20EE13F0070EDE6AE8060C
:10231000FDE209500A100B100C100D100E100F10DA
:102320001010D8B496EF11F098EF11F0EAEF11F019
:10233000010E116EA6EF11F0D89009360A360B3651
:102340000C360D360E360F361036112A10AEABEFA6
:1023500011F0ADEF11F09CEF11F0D8901336143658
:10236000153616361736183619361A360950015CE6
:102370000A5002580B5003580C5004580D50055881
:102380000E5006580F50075810500858D8A0CBEFE1
:1023900011F0CDEF11F0DEEF11F00950015E0A509F
:1023A000025A0B50035A0C50045A0D50055A0E5045
:1023B000065A0F50075A1050085A1380D8901032FE
:1023C0000F320E320D320C320B320A320932112E1C
:1023D000ADEF11F01250D8B4F0EF11F0F2EF11F0B0
:1023E00002EF12F01A1E191E181E171E161E151EB9
:1023F000141E136C000E1422152216221722182206
:1024000019221A2213C001F014C002F015C003F003
:1024100016C004F017C005F018C006F019C007F088
:102420001AC008F012001A041B10D8A41AEF12F0F8
:102430001CEF12F030EF12F07CEC1AF020EE01F0FD
:102440001450D9261550DA22010EDF6E20EE01F06D
:102450001650D9261750DA22000EDF6E62EF12F006
:102460008CEC1AF020EE01F01450D9261550DA2227
:10247000000EDF6E20EE01F01650D9261750DA223A
:10248000010EDF6E62EF12F014C0D9FF15C0DAFF43
:10249000DF2A16C0D9FF17C0DAFFDF2A14C009F0FF
:1024A00015C00AF095EC0FF016C009F017C00AF03D
:1024B00095EC0FF0680E1C6EE40EE82EFED71C2E75
:1024C000FCD700D014C0D9FF15C0DAFF3B0EDF6483
:1024D0006CEF12F06EEF12F044EF12F018C00BF038
:1024E00019C00CF0000E0E6E050E0D6E9BEC17F071
:1024F0000BC018F00CC019F0000E1E6E000E1D6E01
:102500008CEF12F0680E1C6EE40EE82EFED71C2E27
:10251000FCD700D01D4A1E2A18501D5C19501E58A9
:10252000D8A095EF12F097EF12F082EF12F0B7EF0C
:1025300012F014C0D9FF15C0DAFFDF0616C0D9FFAC
:1025400017C0DAFFDF0614C009F015C00AF095ECD9
:102550000FF016C009F017C00AF095EC0FF0680EE6
:102560001C6EE40EE82EFED71C2EFCD700D014C043
:10257000D9FF15C0DAFFDF50D8A4C1EF12F0C3EFC6
:1025800012F099EF12F080A0C8EF12F0CAEF12F02B
:10259000CCEF12F07CEC1AF07EA0D1EF12F0D3EF6A
:1025A00012F0D5EF12F08CEC1AF01200000E126E41
:1025B00008BEDFEF12F0DDEF12F0F1EF12F0081EAF
:1025C000071E061E051E041E031E021E016C000EC1
:1025D0000222032204220522062207220822010EDB
:1025E000126E10BEF8EF12F0F6EF12F008EF13F0D3
:1025F000101E0F1E0E1E0D1E0C1E0B1E0A1E096C39
:10260000000E0A220B220C220D220E220F22102273
:1026100009500A100B100C100D100E100F10101096
:10262000D8B415EF13F017EF13F05FEF13F0010EAE
:10263000116E25EF13F0D89009360A360B360C369A
:102640000D360E360F361036112A10AE2AEF13F063
:102650002CEF13F01BEF13F00950015C0A500258E5
:102660000B5003580C5004580D5005580E50065886
:102670000F50075810500858D8A041EF13F043EFFF
:1026800013F053EF13F00950015E0A50025A0B5039
:10269000035A0C50045A0D50055A0E50065A0F504A
:1026A000075A1050085AD89010320F320E320D329D
:1026B0000C320B320A320932112E2CEF13F0125069
:1026C000D8B465EF13F067EF13F077EF13F0081E3F
:1026D000071E061E051E041E031E021E016C000EB0
:1026E000022203220422052206220722082201C018
:1026F00001F002C002F003C003F004C004F005C002
:1027000005F006C006F007C007F008C008F0120088
:1027100020EE01F01450D9261550DA2219C0DFFF3F
:1027200020EE01F01650D9261750DA2219C0DFFF2B
:1027300019C005F0066AFF0E086ED80E076E10EC81
:102740001AF0320E05241C6E000E06201D6EC7EF17
:1027500013F014C0D9FF15C0DAFFDF2A16C0D9FF65
:1027600017C0DAFFDF2A14C009F015C00AF095EC93
:102770000FF016C009F017C00AF095EC0FF0680EC4
:102780001A6EE40EE82EFED71A2EFCD700D014C025
:10279000D9FF15C0DAFFDF501A6E1B6A1C501A5C95
:1027A0001D501B58D8A0D7EF13F0D9EF13F0A9EFA5
:1027B00013F0E8EF13F0110E1B6E3C0E1A6ECB0EE9
:1027C000E82EFED71A2EFCD71B2EFAD700F01806DB
:1027D0001850D8A4EEEF13F0F0EF13F0DBEF13F086
:1027E00010EF14F014C0D9FF15C0DAFFDF0616C0D1
:1027F000D9FF17C0DAFFDF0614C009F015C00AF0D0
:1028000095EC0FF016C009F017C00AF095EC0FF028
:10281000680E1A6EE40EE82EFED71A2EFCD700D0F2
:1028200014C0D9FF15C0DAFFDF50D8A41AEF14F096
:102830001CEF14F0F2EF13F01200186E7D907B9EE7
:102840008594839E8598879CBD508F0B3009BD6E03
:10285000E00EBE16BF50F00B0109BF6E18C0BCFFE2
:10286000BD8E0A0E0E01746F0B0E696F000EA36E03
:10287000000EA06EA48EA18E14C0D9FF15C0DAFF81
:10288000000EDF6E20EE01F01450D9261550DA222A
:10289000000EDF6E20EE02F01450D9261550DA2219
:1028A000A30EDE6E0F0EDD6E20EE04F01450D9265E
:1028B0001550DA227D0EDE6E0F0EDD6E20EE06F074
:1028C0001450D9261550DA22040EDF6E20EE07F0E0
:1028D0001450D9261550DA22C70EDF6E16C0D9FF64
:1028E00017C0DAFF000EDF6E20EE01F01650D92679
:1028F0001750DA22000EDF6E20EE02F01650D926B5
:102900001750DA22A00EDE6E0F0EDD6E20EE04F000
:102910001650D9261750DA227F0EDE6E0F0EDD6EAE
:1029200020EE06F01650D9261750DA22060EDF6E7A
:1029300020EE07F01650D9261750DA22C70EDF6EA8
:1029400014C009F015C00AF095EC0FF016C009F09C
:1029500017C00AF095EC0FF0120003C0D9FF04C0B5
:10296000DAFFDECF05F0DDCF06F001C0D9FF02C0EF
:10297000DAFFDECF07F0DDCF08F00550075E065026
:10298000085A01C0D9FF02C0DAFF07C0DEFF08C045
:10299000DDFF20EE02F00350D9260450DA22DECF0C
:1029A00005F0DDCF06F020EE02F00150D9260250EE
:1029B000DA22DECF07F0DDCF08F00550075E0650C3
:1029C000085A20EE02F00150D9260250DA2207C040
:1029D000DEFF08C0DDFF20EE04F00350D9260450CE
:1029E000DA22DECF05F0DDCF06F020EE04F0015054
:1029F000D9260250DA22DECF07F0DDCF08F00550ED
:102A0000075E0650085A20EE04F00150D926025005
:102A1000DA2207C0DEFF08C0DDFF20EE06F003501B
:102A2000D9260450DA22DECF05F0DDCF06F020EE05
:102A300006F00150D9260250DA22DECF07F0DDCFB2
:102A400008F00550075E0650085A20EE06F00150C7
:102A5000D9260250DA2207C0DEFF08C0DDFF1200CF
:102A600003500410D8B437EF15F039EF15F042EFEA
:102A700015F003500410D8A440EF15F042EF15F004
:102A800047EF15F0015039EC1BF094EF15F020EEF4
:102A900004F00350D9260450DA22DE50DE10D8B4F8
:102AA00054EF15F056EF15F071EF15F020EE04F02D
:102AB0000350D9260450DA2210EE02F00350E1262A
:102AC0000450E222DE50E65CE650800A096EDE50D9
:102AD000800A0958D8B06FEF15F071EF15F094EF38
:102AE00015F020EE02F00350D9260450DA22DECF92
:102AF00005F0DDCF06F003C0D9FF04C0DAFFDECF5A
:102B000007F0DDCF08F005500724D96E06500820E5
:102B1000DA6E01C0DFFF20EE02F00350D926045028
:102B2000DA22DE2A000EDD2212000001ECA19BEF6A
:102B300015F09DEF15F0A7EF15F013C00AF014C0C3
:102B40000BF011C00CF012C00DF00FEC19F016BE16
:102B5000ACEF15F0AEEF15F0B4EF15F015C01AF0AC
:102B600016C01BF0B8EF15F0000E1B6E000E1A6EAB
:102B7000000E196E000E186ECAEF15F0000E026EF0
:102B8000200E016E11C003F012C004F030EC15F0FD
:102B9000184A192A1A50185C1950800A176E1B50CF
:102BA000800A1758D8A0D7EF15F0D9EF15F0BEEF6F
:102BB00015F00001ECB1DFEF15F0E1EF15F0EBEFF0
:102BC00015F013C00AF014C00BF011C00CF012C0C5
:102BD0000DF00FEC19F013C001F014C002F072EC0C
:102BE00019F01A500124116E1B500220126E1200AF
:102BF000000E066E04BE01EF16F0FFEF15F007EFB2
:102C000016F0036C041ED8B0042A010E066E02BE34
:102C10000EEF16F00CEF16F014EF16F0016C021E1A
:102C2000D8B0022A010E061A000E086E000E076EBA
:102C300003500410D8B41FEF16F021EF16F049EF3F
:102C400016F0010E056E29EF16F0D8900336043603
:102C5000052A04AE2EEF16F030EF16F025EF16F031
:102C6000D890073608360350015C04500258D8A0AB
:102C70003CEF16F03EEF16F043EF16F00350015E06
:102C80000450025A0780D89004320332052E30EFE8
:102C900016F00650D8B44FEF16F051EF16F055EF7E
:102CA00016F0076C081ED8B0082A07C001F008C04B
:102CB00002F01200110E186E3C0E176ECB0EE82EAD
:102CC000FED7172EFCD7182EFAD700F00FC00DF044
:102CD00010C00EF008EC18F048EC1AF023EC1AF0D3
:102CE000110E186E3C0E176ECB0EE82EFED7172E67
:102CF000FCD7182EFAD700F011C00DF012C00EF05C
:102D000008EC18F048EC1AF09CEC1AF0110E186E52
:102D10003C0E176ECB0EE82EFED7172EFCD7182EC2
:102D2000FAD700F013C00DF014C00EF008EC18F044
:102D300048EC1AF023EC1AF0110E186E3C0E176EC8
:102D4000CB0EE82EFED7172EFCD7182EFAD700F0A0
:102D500015C00DF016C00EF008EC18F048EC1AF093
:102D60009CEC1AF01200016E020E0118D8A4BBEF01
:102D700016F0BDEF16F0C0EF16F0060E09EF17F0D3
:102D8000030E0118D8A4C7EF16F0C9EF16F0CCEF68
:102D900016F00A0E09EF17F0040E0118D8A4D3EFAD
:102DA00016F0D5EF16F0D8EF16F0040E09EF17F075
:102DB000050E0118D8A4DFEF16F0E1EF16F0E4EFEE
:102DC00016F0090E09EF17F0060E0118D8A4EBEF64
:102DD00016F0EDEF16F0F0EF16F0020E09EF17F017
:102DE000070E0118D8A4F7EF16F0F9EF16F0FCEF74
:102DF00016F0080E09EF17F0080E0118D8A403EF1B
:102E000017F005EF17F008EF17F0070E09EF17F0AE
:102E1000050E1200000E046E1DEF17F06BEC1AF099
:102E2000090E036E1E0E026EE40EE82EFED7022E71
:102E3000FCD7032EFAD700D0042A050E046423EF32
:102E400017F025EF17F00EEF17F036EF17F06BECD9
:102E50001AF0520E036E2B0E026E000EE82EFED7F5
:102E6000022EFCD7032EFAD700D0042A0C0E0464DD
:102E70003CEF17F03EEF17F027EF17F04FEF17F08A
:102E80006BEC1AF0090E036E1E0E026EE40EE82EB5
:102E9000FED7022EFCD7032EFAD700D0042A130E39
:102EA000046455EF17F057EF17F040EF17F01200DA
:102EB00020EE01F01450D9261550DA221AC0DFFF97
:102EC00020EE01F01650D9261750DA221AC0DFFF83
:102ED00088EF17F014C0D9FF15C0DAFFDF2A16C03B
:102EE000D9FF17C0DAFFDF2A14C009F015C00AF0B5
:102EF00095EC0FF016C009F017C00AF095EC0FF032
:102F0000680E1B6EE40EE82EFED71B2EFCD700D0F9
:102F100014C0D9FF15C0DAFFDF501B6E1C6A1850B1
:102F20001B5C19501C58D8A098EF17F09AEF17F0B7
:102F30006AEF17F01200000E106E000E0F6E0D50AB
:102F40000E10D8B4A6EF17F0A8EF17F0D0EF17F0D7
:102F5000010E116EB0EF17F0D8900D360E36112A13
:102F60000EAEB5EF17F0B7EF17F0ACEF17F0D89043
:102F70000F3610360D500B5C0E500C58D8A0C3EF16
:102F800017F0C5EF17F0CAEF17F00D500B5E0E509B
:102F90000C5A0F80D8900E320D32112EB7EF17F069
:102FA0000FC00BF010C00CF012007FA0DAEF17F08A
:102FB000DEEF17F0016A012ADFEF17F0016A7F5098
:102FC0000118FE0B01187F6E7DAEE9EF17F0EDEFF3
:102FD00017F0016A012AEEEF17F0016A013201329F
:102FE0007D5001187F0B01187D6E79A6FAEF17F05E
:102FF000FEEF17F0016A012AFFEF17F0016A0146A0
:103000000146014679500118F70B0118796E12003C
:10301000160E99EC18F00DC0D9FF0EC0DAFF05C0EE
:10302000DEFF06C0DDFF180E99EC18F020EE02F06E
:103030000D50D9260E50DA2205C0DEFF06C0DDFF96
:103040001A0E99EC18F020EE04F00D50D9260E500F
:10305000DA2205C0DEFF06C0DDFF140E99EC18F081
:1030600020EE06F00D50D9260E50DA2205C0DEFF04
:1030700006C0DDFF120052C056F053C057F0000EDC
:103080000001E76F000EE66F59EF18F050C040F0F6
:1030900051C041F0560E426E000E436E54C044F0D3
:1030A00055C045F075EC10F040500001E627415046
:1030B000E72356C0F6FF57C0F7FF0800F550000998
:1030C000D8A465EF18F067EF18F046EF18F0E6C0E7
:1030D00050F0E7C051F012008CEF18F014C0D9FF87
:1030E00015C0DAFFDF0616C0D9FF17C0DAFFDF060A
:1030F00014C009F015C00AF095EC0FF016C009F0E5
:1031000017C00AF095EC0FF0680E186EE40EE82E6A
:10311000FED7182EFCD700D014C0D9FF15C0DAFF97
:10312000DF50D8A496EF18F098EF18F06EEF18F073
:1031300012000A6E2FEC1BF0520E24EC1BF00A500A
:10314000A00924EC1BF034EC1BF0530E24EC1BF014
:10315000010E31EC19F0076E07500B6E0C6A000E71
:1031600031EC19F0076E0750096E086A0B50081011
:103170000B6E0C5009100C6E2AEC1BF00BC005F006
:103180000CC006F012005C0E0001626F000E636F4F
:1031900058C064F059C065F0000E676F000E666F8E
:1031A000000E696F000E686F640E506E000E516E57
:1031B0005AC052F05BC053F0620E546E000E556E52
:1031C0003BEC18F0000166515824D96E6751592024
:1031D000DA6E000EDF6E1200000E036E040EBCEC01
:1031E0001AF0000E036E050EBCEC1AF07A0E036E98
:1031F000060EBCEC1AF0030E036E070EBCEC1AF0C0
:10320000010E036E0C0EBCEC1AF01B0E036E000ECA
:10321000BCEC1AF02FEC1BF034EC1BF01200000E8B
:10322000106E000E0F6E20EF19F00EC001F0026A52
:103230000CC003F00DC004F030EC15F00F4A102A5A
:103240000F500A24D96E10500B20DA6EDF500E6E2C
:103250000E50D8A42EEF19F030EF19F015EF19F039
:103260001200036EE9EC19F00E01DA87E9EC19F0AF
:10327000D5CE04F0E9EC19F00350D8B442EF19F0C0
:1032800046EF19F0026A022A47EF19F0026A023A81
:1032900002460E01DA510218DF0B0218DA6FDA89E2
:1032A0000450120014BE5FEF19F0145006E113042D
:1032B000D8B05DEF19F05FEF19F06DEF19F013C0A2
:1032C00015F014C016F0151E161E154A162A15C044
:1032D00013F016C014F071EF19F013C013F014C0FE
:1032E00014F0120001C003F002C004F07AEF19F0EC
:1032F000014A022A01C0D9FF02C0DAFFDF50D8A478
:1033000084EF19F086EF19F078EF19F00350015CA3
:10331000016E04500258026E1200D4EC19F0010E36
:10332000036E000EBCEC1AF03F0E056E550EE82E33
:10333000FED7052EFCD700F0030E036E000EBCEC8A
:103340001AF0D50E036E010EBCEC1AF01200B2EFAB
:1033500019F002C0D9FF03C0DAFFDF5006EC1BF002
:10336000024A032A02C0D9FF03C0DAFFDF50D8A403
:10337000BCEF19F0BEEF19F0A9EF19F0120001EE41
:1033800000F0200EEE6AE806FDE100EEE6F0080E21
:10339000EE6AE806FDE15E905E92000EF86E0E0E9B
:1033A000F76E00010AEF07F00E01D951F00B080982
:1033B000D96FD98B9F0ED66F848A848CA79BA79DCB
:1033C0001D0E1D6F1E0E1C6F1C0E6F6F1B0E706F7F
:1033D00012000E01D8B5EFEF19F0F1EF19F0E9EF97
:1033E00019F0DACE01F01F0E0116D8A4FAEF19F089
:1033F000FCEF19F0E9EF19F012007CA602EF1AF0C9
:1034000006EF1AF0016A012A07EF1AF0016A014675
:10341000014601467C500118F70B01187C6E120022
:1034200005500702F3CF09F0F4CF0AF00550080267
:10343000F3500A2606500702F3500A2609C005F089
:103440000AC006F0120079A628EF1AF02CEF1AF045
:10345000016A012A2DEF1AF0016A01460146014670
:1034600079500118F70B0118796E12007C9E849E2A
:103470008096889686840E01B495809288927C9678
:1034800084967C9884987E90869080908890120094
:103490007DAE4DEF1AF051EF1AF0016A012A52EF9A
:1034A0001AF0016A013201327D5001187F0B0118B8
:1034B0007D6E12007CA85FEF1AF063EF1AF0016ACC
:1034C000012A64EF1AF0016A013A7C500118EF0BEF
:1034D00001187C6E120080A270EF1AF074EF1AF0DF
:1034E000016A012A75EF1AF0016A0146805001183D
:1034F000FD0B0118806E120080A081EF1AF085EF9D
:103500001AF0016A012A86EF1AF0016A8050011848
:10351000FE0B0118806E12007EA091EF1AF095EF5D
:103520001AF0016A012A96EF1AF0016A7E5001181A
:10353000FE0B01187E6E12007FA0A1EF1AF0A5EF1E
:103540001AF0016A012AA6EF1AF0016A7F500118E9
:10355000FE0B01187F6E1200D6501F0B4009D66E6D
:10356000D688D650F00B0609D66ED5880B0ED46ED1
:10357000DB0ED36ED58E1200046E2FEC1BF0520EB4
:1035800024EC1BF00450800924EC1BF0035024ECC5
:103590001BF02AEC1BF01200608060B0D2EF1AF032
:1035A000D4EF1AF0CDEF1AF064CF03F0046A03C031
:1035B00001F004C002F01200120E0E01626F110E33
:1035C000156FE997E895330EE56F000EE66FE78912
:1035D000E88BE78F120082800E019A910D01F0872F
:1035E000F80EF017F2900E01298BF28C2981F28EE1
:1035F0001200868C0E01B48D0F015899FC0E5817DD
:103600002E0E5F6F60946088608E1200016E0E0156
:1036100037A50DEF1BF00FEF1BF007EF1BF001C0FC
:10362000E4FE12002FEC1BF0520E24EC1BF0E60E11
:1036300024EC1BF02AEC1BF012007F9087907D9EFB
:10364000859E799681961200026EE9EC19F002C00F
:10365000D5FE1200E9EC19F00E01DA851200E9EC52
:1036600019F00E01DA811200E9EC19F00E01DA838B
:043670001200120032
:020000040020DA
:10000000FF0FFF0FFF0FFF0FFF0FFF0FFF0FFF0F80
:020000040030CA
:0C000000AAFFFFFF9FFFFFFFFFFFFFFFB5
:00000001FF
